{
  "contractName": "Contest",
  "abi": [
    {
      "inputs": [
        {
          "internalType": "address",
          "name": "v1",
          "type": "address"
        },
        {
          "internalType": "address",
          "name": "v2",
          "type": "address"
        },
        {
          "internalType": "address",
          "name": "v3",
          "type": "address"
        },
        {
          "internalType": "address",
          "name": "_topStakeValidator",
          "type": "address"
        }
      ],
      "stateMutability": "nonpayable",
      "type": "constructor"
    },
    {
      "anonymous": false,
      "inputs": [
        {
          "indexed": false,
          "internalType": "uint256",
          "name": "id",
          "type": "uint256"
        },
        {
          "indexed": false,
          "internalType": "string",
          "name": "name",
          "type": "string"
        }
      ],
      "name": "CandidateAdded",
      "type": "event"
    },
    {
      "anonymous": false,
      "inputs": [
        {
          "indexed": false,
          "internalType": "uint256",
          "name": "phase",
          "type": "uint256"
        }
      ],
      "name": "PhaseChanged",
      "type": "event"
    },
    {
      "anonymous": false,
      "inputs": [
        {
          "indexed": false,
          "internalType": "address",
          "name": "voter",
          "type": "address"
        },
        {
          "indexed": false,
          "internalType": "uint256",
          "name": "candidateId",
          "type": "uint256"
        }
      ],
      "name": "Voted",
      "type": "event"
    },
    {
      "anonymous": false,
      "inputs": [
        {
          "indexed": false,
          "internalType": "address",
          "name": "voter",
          "type": "address"
        },
        {
          "indexed": false,
          "internalType": "address",
          "name": "validator",
          "type": "address"
        }
      ],
      "name": "VoterApproved",
      "type": "event"
    },
    {
      "anonymous": false,
      "inputs": [
        {
          "indexed": false,
          "internalType": "address",
          "name": "voter",
          "type": "address"
        }
      ],
      "name": "VoterRegistered",
      "type": "event"
    },
    {
      "anonymous": false,
      "inputs": [
        {
          "indexed": false,
          "internalType": "address",
          "name": "voter",
          "type": "address"
        }
      ],
      "name": "VoterRequested",
      "type": "event"
    },
    {
      "inputs": [],
      "name": "candidateCount",
      "outputs": [
        {
          "internalType": "uint256",
          "name": "",
          "type": "uint256"
        }
      ],
      "stateMutability": "view",
      "type": "function",
      "constant": true
    },
    {
      "inputs": [
        {
          "internalType": "uint256",
          "name": "",
          "type": "uint256"
        }
      ],
      "name": "candidates",
      "outputs": [
        {
          "internalType": "uint256",
          "name": "id",
          "type": "uint256"
        },
        {
          "internalType": "string",
          "name": "name",
          "type": "string"
        },
        {
          "internalType": "string",
          "name": "party",
          "type": "string"
        },
        {
          "internalType": "uint256",
          "name": "age",
          "type": "uint256"
        },
        {
          "internalType": "string",
          "name": "qualification",
          "type": "string"
        },
        {
          "internalType": "uint256",
          "name": "voteCount",
          "type": "uint256"
        }
      ],
      "stateMutability": "view",
      "type": "function",
      "constant": true
    },
    {
      "inputs": [],
      "name": "currentPhase",
      "outputs": [
        {
          "internalType": "enum Contest.Phase",
          "name": "",
          "type": "uint8"
        }
      ],
      "stateMutability": "view",
      "type": "function",
      "constant": true
    },
    {
      "inputs": [
        {
          "internalType": "address",
          "name": "",
          "type": "address"
        }
      ],
      "name": "hasRequested",
      "outputs": [
        {
          "internalType": "bool",
          "name": "",
          "type": "bool"
        }
      ],
      "stateMutability": "view",
      "type": "function",
      "constant": true
    },
    {
      "inputs": [
        {
          "internalType": "address",
          "name": "",
          "type": "address"
        }
      ],
      "name": "isValidator",
      "outputs": [
        {
          "internalType": "bool",
          "name": "",
          "type": "bool"
        }
      ],
      "stateMutability": "view",
      "type": "function",
      "constant": true
    },
    {
      "inputs": [],
      "name": "owner",
      "outputs": [
        {
          "internalType": "address",
          "name": "",
          "type": "address"
        }
      ],
      "stateMutability": "view",
      "type": "function",
      "constant": true
    },
    {
      "inputs": [],
      "name": "topStakeValidator",
      "outputs": [
        {
          "internalType": "address",
          "name": "",
          "type": "address"
        }
      ],
      "stateMutability": "view",
      "type": "function",
      "constant": true
    },
    {
      "inputs": [
        {
          "internalType": "uint256",
          "name": "",
          "type": "uint256"
        }
      ],
      "name": "validatorList",
      "outputs": [
        {
          "internalType": "address",
          "name": "",
          "type": "address"
        }
      ],
      "stateMutability": "view",
      "type": "function",
      "constant": true
    },
    {
      "inputs": [
        {
          "internalType": "address",
          "name": "",
          "type": "address"
        }
      ],
      "name": "validatorRewards",
      "outputs": [
        {
          "internalType": "uint256",
          "name": "",
          "type": "uint256"
        }
      ],
      "stateMutability": "view",
      "type": "function",
      "constant": true
    },
    {
      "inputs": [
        {
          "internalType": "address",
          "name": "",
          "type": "address"
        }
      ],
      "name": "validatorStake",
      "outputs": [
        {
          "internalType": "uint256",
          "name": "",
          "type": "uint256"
        }
      ],
      "stateMutability": "view",
      "type": "function",
      "constant": true
    },
    {
      "inputs": [
        {
          "internalType": "address",
          "name": "",
          "type": "address"
        }
      ],
      "name": "voters",
      "outputs": [
        {
          "internalType": "string",
          "name": "aadhaarHash",
          "type": "string"
        },
        {
          "internalType": "address",
          "name": "wallet",
          "type": "address"
        },
        {
          "internalType": "bool",
          "name": "isRegistered",
          "type": "bool"
        },
        {
          "internalType": "bool",
          "name": "hasVoted",
          "type": "bool"
        },
        {
          "internalType": "uint256",
          "name": "votedTo",
          "type": "uint256"
        },
        {
          "internalType": "bool",
          "name": "rejected",
          "type": "bool"
        }
      ],
      "stateMutability": "view",
      "type": "function",
      "constant": true
    },
    {
      "inputs": [
        {
          "internalType": "string",
          "name": "_aadhaarHash",
          "type": "string"
        }
      ],
      "name": "requestVoterRegistration",
      "outputs": [],
      "stateMutability": "nonpayable",
      "type": "function"
    },
    {
      "inputs": [
        {
          "internalType": "address",
          "name": "voterAddr",
          "type": "address"
        }
      ],
      "name": "approveVoter",
      "outputs": [],
      "stateMutability": "nonpayable",
      "type": "function"
    },
    {
      "inputs": [
        {
          "internalType": "address",
          "name": "voterAddr",
          "type": "address"
        }
      ],
      "name": "rejectVoter",
      "outputs": [],
      "stateMutability": "nonpayable",
      "type": "function"
    },
    {
      "inputs": [
        {
          "internalType": "string",
          "name": "_name",
          "type": "string"
        },
        {
          "internalType": "string",
          "name": "_party",
          "type": "string"
        },
        {
          "internalType": "uint256",
          "name": "_age",
          "type": "uint256"
        },
        {
          "internalType": "string",
          "name": "_qualification",
          "type": "string"
        }
      ],
      "name": "addCandidate",
      "outputs": [],
      "stateMutability": "nonpayable",
      "type": "function"
    },
    {
      "inputs": [],
      "name": "changePhase",
      "outputs": [],
      "stateMutability": "nonpayable",
      "type": "function"
    },
    {
      "inputs": [
        {
          "internalType": "uint256",
          "name": "candidateId",
          "type": "uint256"
        }
      ],
      "name": "vote",
      "outputs": [],
      "stateMutability": "nonpayable",
      "type": "function"
    },
    {
      "inputs": [
        {
          "internalType": "uint256",
          "name": "id",
          "type": "uint256"
        }
      ],
      "name": "getCandidate",
      "outputs": [
        {
          "components": [
            {
              "internalType": "uint256",
              "name": "id",
              "type": "uint256"
            },
            {
              "internalType": "string",
              "name": "name",
              "type": "string"
            },
            {
              "internalType": "string",
              "name": "party",
              "type": "string"
            },
            {
              "internalType": "uint256",
              "name": "age",
              "type": "uint256"
            },
            {
              "internalType": "string",
              "name": "qualification",
              "type": "string"
            },
            {
              "internalType": "uint256",
              "name": "voteCount",
              "type": "uint256"
            }
          ],
          "internalType": "struct Contest.Candidate",
          "name": "",
          "type": "tuple"
        }
      ],
      "stateMutability": "view",
      "type": "function",
      "constant": true
    },
    {
      "inputs": [],
      "name": "getAllCandidates",
      "outputs": [
        {
          "components": [
            {
              "internalType": "uint256",
              "name": "id",
              "type": "uint256"
            },
            {
              "internalType": "string",
              "name": "name",
              "type": "string"
            },
            {
              "internalType": "string",
              "name": "party",
              "type": "string"
            },
            {
              "internalType": "uint256",
              "name": "age",
              "type": "uint256"
            },
            {
              "internalType": "string",
              "name": "qualification",
              "type": "string"
            },
            {
              "internalType": "uint256",
              "name": "voteCount",
              "type": "uint256"
            }
          ],
          "internalType": "struct Contest.Candidate[]",
          "name": "",
          "type": "tuple[]"
        }
      ],
      "stateMutability": "view",
      "type": "function",
      "constant": true
    },
    {
      "inputs": [
        {
          "internalType": "address",
          "name": "addr",
          "type": "address"
        }
      ],
      "name": "getVoter",
      "outputs": [
        {
          "components": [
            {
              "internalType": "string",
              "name": "aadhaarHash",
              "type": "string"
            },
            {
              "internalType": "address",
              "name": "wallet",
              "type": "address"
            },
            {
              "internalType": "bool",
              "name": "isRegistered",
              "type": "bool"
            },
            {
              "internalType": "bool",
              "name": "hasVoted",
              "type": "bool"
            },
            {
              "internalType": "uint256",
              "name": "votedTo",
              "type": "uint256"
            },
            {
              "internalType": "address[]",
              "name": "approvedBy",
              "type": "address[]"
            },
            {
              "internalType": "bool",
              "name": "rejected",
              "type": "bool"
            }
          ],
          "internalType": "struct Contest.Voter",
          "name": "",
          "type": "tuple"
        }
      ],
      "stateMutability": "view",
      "type": "function",
      "constant": true
    },
    {
      "inputs": [],
      "name": "getCurrentPhase",
      "outputs": [
        {
          "internalType": "string",
          "name": "",
          "type": "string"
        }
      ],
      "stateMutability": "view",
      "type": "function",
      "constant": true
    }
  ],
  "bytecode": "0x60806040523480156200001157600080fd5b50604051620037913803806200379183398181016040528101906200003791906200046f565b33600060016101000a81548173ffffffffffffffffffffffffffffffffffffffff021916908373ffffffffffffffffffffffffffffffffffffffff1602179055506001600260008673ffffffffffffffffffffffffffffffffffffffff1673ffffffffffffffffffffffffffffffffffffffff16815260200190815260200160002060006101000a81548160ff0219169083151502179055506001600260008573ffffffffffffffffffffffffffffffffffffffff1673ffffffffffffffffffffffffffffffffffffffff16815260200190815260200160002060006101000a81548160ff0219169083151502179055506001600260008473ffffffffffffffffffffffffffffffffffffffff1673ffffffffffffffffffffffffffffffffffffffff16815260200190815260200160002060006101000a81548160ff02191690831515021790555080600160006101000a81548173ffffffffffffffffffffffffffffffffffffffff021916908373ffffffffffffffffffffffffffffffffffffffff160217905550678ac7230489e80000600360008673ffffffffffffffffffffffffffffffffffffffff1673ffffffffffffffffffffffffffffffffffffffff16815260200190815260200160002081905550678ac7230489e80000600360008573ffffffffffffffffffffffffffffffffffffffff1673ffffffffffffffffffffffffffffffffffffffff16815260200190815260200160002081905550678ac7230489e80000600360008473ffffffffffffffffffffffffffffffffffffffff1673ffffffffffffffffffffffffffffffffffffffff168152602001908152602001600020819055506009849080600181540180825580915050600190039060005260206000200160009091909190916101000a81548173ffffffffffffffffffffffffffffffffffffffff021916908373ffffffffffffffffffffffffffffffffffffffff1602179055506009839080600181540180825580915050600190039060005260206000200160009091909190916101000a81548173ffffffffffffffffffffffffffffffffffffffff021916908373ffffffffffffffffffffffffffffffffffffffff1602179055506009829080600181540180825580915050600190039060005260206000200160009091909190916101000a81548173ffffffffffffffffffffffffffffffffffffffff021916908373ffffffffffffffffffffffffffffffffffffffff16021790555060008060006101000a81548160ff02191690836002811115620003f657620003f5620004e1565b5b02179055505050505062000510565b600080fd5b600073ffffffffffffffffffffffffffffffffffffffff82169050919050565b600062000437826200040a565b9050919050565b62000449816200042a565b81146200045557600080fd5b50565b60008151905062000469816200043e565b92915050565b600080600080608085870312156200048c576200048b62000405565b5b60006200049c8782880162000458565b9450506020620004af8782880162000458565b9350506040620004c28782880162000458565b9250506060620004d58782880162000458565b91505092959194509250565b7f4e487b7100000000000000000000000000000000000000000000000000000000600052602160045260246000fd5b61327180620005206000396000f3fe608060405234801561001057600080fd5b50600436106101375760003560e01c8063a3a40ea5116100b8578063b1845c561161007c578063b1845c561461036c578063c286d9231461039c578063d4f50f98146103b8578063db6f5953146103e8578063e03ec9cf146103f2578063facd743b1461041057610137565b8063a3a40ea51461029b578063a3ec138d146102b9578063a409eb7b146102ee578063a9a981a31461031e578063b048e0561461033c57610137565b80632e6997fe116100ff5780632e6997fe146101ca5780633477ee2e146101e857806335b8e8201461021d57806339b7fcc61461024d5780638da5cb5b1461027d57610137565b80630121b93f1461013c57806302c7538a14610158578063055ad42e14610174578063119d4ddb146101925780631b04772b146101ae575b600080fd5b61015660048036038101906101519190611f01565b610440565b005b610172600480360381019061016d9190612074565b6106ba565b005b61017c61093d565b6040516101899190612134565b60405180910390f35b6101ac60048036038101906101a791906121ad565b61094e565b005b6101c860048036038101906101c391906121ad565b610cf9565b005b6101d2610e99565b6040516101df91906123c1565b60405180910390f35b61020260048036038101906101fd9190611f01565b61113c565b6040516102149695949392919061243c565b60405180910390f35b61023760048036038101906102329190611f01565b611310565b6040516102449190612549565b60405180910390f35b610267600480360381019061026291906121ad565b611511565b604051610274919061256b565b60405180910390f35b610285611529565b6040516102929190612595565b60405180910390f35b6102a361154f565b6040516102b091906125b0565b60405180910390f35b6102d360048036038101906102ce91906121ad565b611679565b6040516102e5969594939291906125ed565b60405180910390f35b610308600480360381019061030391906121ad565b611784565b6040516103159190612655565b60405180910390f35b6103266117a4565b604051610333919061256b565b60405180910390f35b61035660048036038101906103519190611f01565b6117aa565b6040516103639190612595565b60405180910390f35b610386600480360381019061038191906121ad565b6117e9565b604051610393919061256b565b60405180910390f35b6103b660048036038101906103b19190612670565b611801565b005b6103d260048036038101906103cd91906121ad565b611a08565b6040516103df919061289b565b60405180910390f35b6103f0611c32565b005b6103fa611de2565b6040516104079190612595565b60405180910390f35b61042a600480360381019061042591906121ad565b611e08565b6040516104379190612655565b60405180910390f35b600560003373ffffffffffffffffffffffffffffffffffffffff1673ffffffffffffffffffffffffffffffffffffffff16815260200190815260200160002060010160149054906101000a900460ff166104cf576040517f08c379a00000000000000000000000000000000000000000000000000000000081526004016104c690612909565b60405180910390fd5b60018060028111156104e4576104e36120bd565b5b60008054906101000a900460ff166002811115610504576105036120bd565b5b14610544576040517f08c379a000000000000000000000000000000000000000000000000000000000815260040161053b90612975565b60405180910390fd5b6000600560003373ffffffffffffffffffffffffffffffffffffffff1673ffffffffffffffffffffffffffffffffffffffff16815260200190815260200160002090508060010160159054906101000a900460ff16156105d9576040517f08c379a00000000000000000000000000000000000000000000000000000000081526004016105d0906129e1565b60405180910390fd5b6000831180156105eb57506008548311155b61062a576040517f08c379a000000000000000000000000000000000000000000000000000000000815260040161062190612a4d565b60405180910390fd5b60076000848152602001908152602001600020600501600081548092919061065190612a9c565b919050555060018160010160156101000a81548160ff0219169083151502179055508281600201819055507f4d99b957a2bc29a30ebd96a7be8e68fe50a3c701db28a91436490b7d53870ca433846040516106ad929190612ae4565b60405180910390a1505050565b600660003373ffffffffffffffffffffffffffffffffffffffff1673ffffffffffffffffffffffffffffffffffffffff16815260200190815260200160002060009054906101000a900460ff1615610747576040517f08c379a000000000000000000000000000000000000000000000000000000000815260040161073e90612b59565b60405180910390fd5b6000600281111561075b5761075a6120bd565b5b60008054906101000a900460ff16600281111561077b5761077a6120bd565b5b146107bb576040517f08c379a00000000000000000000000000000000000000000000000000000000081526004016107b290612bc5565b60405180910390fd5b6000600560003373ffffffffffffffffffffffffffffffffffffffff1673ffffffffffffffffffffffffffffffffffffffff16815260200190815260200160002090508181600001908161080f9190612df1565b50338160010160006101000a81548173ffffffffffffffffffffffffffffffffffffffff021916908373ffffffffffffffffffffffffffffffffffffffff16021790555060008160010160146101000a81548160ff02191690831515021790555060008160010160156101000a81548160ff02191690831515021790555060008160040160006101000a81548160ff0219169083151502179055506001600660003373ffffffffffffffffffffffffffffffffffffffff1673ffffffffffffffffffffffffffffffffffffffff16815260200190815260200160002060006101000a81548160ff0219169083151502179055507f50f181084e15bf01dc85ae0176440d299af92806643dc78eced94d84a1786900336040516109319190612595565b60405180910390a15050565b60008054906101000a900460ff1681565b600260003373ffffffffffffffffffffffffffffffffffffffff1673ffffffffffffffffffffffffffffffffffffffff16815260200190815260200160002060009054906101000a900460ff166109da576040517f08c379a00000000000000000000000000000000000000000000000000000000081526004016109d190612f0f565b60405180910390fd5b6000600560008373ffffffffffffffffffffffffffffffffffffffff1673ffffffffffffffffffffffffffffffffffffffff16815260200190815260200160002090508060040160009054906101000a900460ff1615610a6f576040517f08c379a0000000000000000000000000000000000000000000000000000000008152600401610a6690612f7b565b60405180910390fd5b8060010160149054906101000a900460ff1615610ac1576040517f08c379a0000000000000000000000000000000000000000000000000000000008152600401610ab890612fe7565b60405180910390fd5b60005b8160030180549050811015610b94573373ffffffffffffffffffffffffffffffffffffffff16826003018281548110610b0057610aff613007565b5b9060005260206000200160009054906101000a900473ffffffffffffffffffffffffffffffffffffffff1673ffffffffffffffffffffffffffffffffffffffff1603610b81576040517f08c379a0000000000000000000000000000000000000000000000000000000008152600401610b7890613082565b60405180910390fd5b8080610b8c90612a9c565b915050610ac4565b5080600301339080600181540180825580915050600190039060005260206000200160009091909190916101000a81548173ffffffffffffffffffffffffffffffffffffffff021916908373ffffffffffffffffffffffffffffffffffffffff1602179055507f08947962196c4190b5445ab1fd56fe6e5d038f11578fd2ca2fc0592ab04038f58233604051610c2b9291906130a2565b60405180910390a16002816003018054905010610cf55760018160010160146101000a81548160ff021916908315150217905550670de0b6b3a7640000600460003373ffffffffffffffffffffffffffffffffffffffff1673ffffffffffffffffffffffffffffffffffffffff1681526020019081526020016000206000828254610cb691906130cb565b925050819055507fb6be2187d059cc2a55fe29e0e503b566e1e0f8c8780096e185429350acffd3dd82604051610cec9190612595565b60405180910390a15b5050565b600260003373ffffffffffffffffffffffffffffffffffffffff1673ffffffffffffffffffffffffffffffffffffffff16815260200190815260200160002060009054906101000a900460ff16610d85576040517f08c379a0000000000000000000000000000000000000000000000000000000008152600401610d7c90612f0f565b60405180910390fd5b6000600560008373ffffffffffffffffffffffffffffffffffffffff1673ffffffffffffffffffffffffffffffffffffffff16815260200190815260200160002090508060010160149054906101000a900460ff1615610e1a576040517f08c379a0000000000000000000000000000000000000000000000000000000008152600401610e1190612fe7565b60405180910390fd5b60018160040160006101000a81548160ff0219169083151502179055506706f05b59d3b20000600360003373ffffffffffffffffffffffffffffffffffffffff1673ffffffffffffffffffffffffffffffffffffffff1681526020019081526020016000206000828254610e8e91906130ff565b925050819055505050565b6060600060085467ffffffffffffffff811115610eb957610eb8611f49565b5b604051908082528060200260200182016040528015610ef257816020015b610edf611e28565b815260200190600190039081610ed75790505b5090506000600190505b600854811161113457600760008281526020019081526020016000206040518060c001604052908160008201548152602001600182018054610f3d90612c14565b80601f0160208091040260200160405190810160405280929190818152602001828054610f6990612c14565b8015610fb65780601f10610f8b57610100808354040283529160200191610fb6565b820191906000526020600020905b815481529060010190602001808311610f9957829003601f168201915b50505050508152602001600282018054610fcf90612c14565b80601f0160208091040260200160405190810160405280929190818152602001828054610ffb90612c14565b80156110485780601f1061101d57610100808354040283529160200191611048565b820191906000526020600020905b81548152906001019060200180831161102b57829003601f168201915b505050505081526020016003820154815260200160048201805461106b90612c14565b80601f016020809104026020016040519081016040528092919081815260200182805461109790612c14565b80156110e45780601f106110b9576101008083540402835291602001916110e4565b820191906000526020600020905b8154815290600101906020018083116110c757829003601f168201915b505050505081526020016005820154815250508260018361110591906130ff565b8151811061111657611115613007565b5b6020026020010181905250808061112c90612a9c565b915050610efc565b508091505090565b600760205280600052604060002060009150905080600001549080600101805461116590612c14565b80601f016020809104026020016040519081016040528092919081815260200182805461119190612c14565b80156111de5780601f106111b3576101008083540402835291602001916111de565b820191906000526020600020905b8154815290600101906020018083116111c157829003601f168201915b5050505050908060020180546111f390612c14565b80601f016020809104026020016040519081016040528092919081815260200182805461121f90612c14565b801561126c5780601f106112415761010080835404028352916020019161126c565b820191906000526020600020905b81548152906001019060200180831161124f57829003601f168201915b50505050509080600301549080600401805461128790612c14565b80601f01602080910402602001604051908101604052809291908181526020018280546112b390612c14565b80156113005780601f106112d557610100808354040283529160200191611300565b820191906000526020600020905b8154815290600101906020018083116112e357829003601f168201915b5050505050908060050154905086565b611318611e28565b600760008381526020019081526020016000206040518060c00160405290816000820154815260200160018201805461135090612c14565b80601f016020809104026020016040519081016040528092919081815260200182805461137c90612c14565b80156113c95780601f1061139e576101008083540402835291602001916113c9565b820191906000526020600020905b8154815290600101906020018083116113ac57829003601f168201915b505050505081526020016002820180546113e290612c14565b80601f016020809104026020016040519081016040528092919081815260200182805461140e90612c14565b801561145b5780601f106114305761010080835404028352916020019161145b565b820191906000526020600020905b81548152906001019060200180831161143e57829003601f168201915b505050505081526020016003820154815260200160048201805461147e90612c14565b80601f01602080910402602001604051908101604052809291908181526020018280546114aa90612c14565b80156114f75780601f106114cc576101008083540402835291602001916114f7565b820191906000526020600020905b8154815290600101906020018083116114da57829003601f168201915b505050505081526020016005820154815250509050919050565b60036020528060005260406000206000915090505481565b600060019054906101000a900473ffffffffffffffffffffffffffffffffffffffff1681565b606060006002811115611565576115646120bd565b5b60008054906101000a900460ff166002811115611585576115846120bd565b5b036115c7576040518060400160405280600c81526020017f526567697374726174696f6e00000000000000000000000000000000000000008152509050611676565b600160028111156115db576115da6120bd565b5b60008054906101000a900460ff1660028111156115fb576115fa6120bd565b5b0361163d576040518060400160405280600681526020017f566f74696e6700000000000000000000000000000000000000000000000000008152509050611676565b6040518060400160405280600681526020017f526573756c74000000000000000000000000000000000000000000000000000081525090505b90565b600560205280600052604060002060009150905080600001805461169c90612c14565b80601f01602080910402602001604051908101604052809291908181526020018280546116c890612c14565b80156117155780601f106116ea57610100808354040283529160200191611715565b820191906000526020600020905b8154815290600101906020018083116116f857829003601f168201915b5050505050908060010160009054906101000a900473ffffffffffffffffffffffffffffffffffffffff16908060010160149054906101000a900460ff16908060010160159054906101000a900460ff16908060020154908060040160009054906101000a900460ff16905086565b60066020528060005260406000206000915054906101000a900460ff1681565b60085481565b600981815481106117ba57600080fd5b906000526020600020016000915054906101000a900473ffffffffffffffffffffffffffffffffffffffff1681565b60046020528060005260406000206000915090505481565b600160009054906101000a900473ffffffffffffffffffffffffffffffffffffffff1673ffffffffffffffffffffffffffffffffffffffff163373ffffffffffffffffffffffffffffffffffffffff1614611891576040517f08c379a00000000000000000000000000000000000000000000000000000000081526004016118889061317f565b60405180910390fd5b60008060028111156118a6576118a56120bd565b5b60008054906101000a900460ff1660028111156118c6576118c56120bd565b5b14611906576040517f08c379a00000000000000000000000000000000000000000000000000000000081526004016118fd90612975565b60405180910390fd5b6008600081548092919061191990612a9c565b91905055506040518060c00160405280600854815260200186815260200185815260200184815260200183815260200160008152506007600060085481526020019081526020016000206000820151816000015560208201518160010190816119829190612df1565b5060408201518160020190816119989190612df1565b506060820151816003015560808201518160040190816119b89190612df1565b5060a082015181600501559050507fe83b2a43e7e82d975c8a0a6d2f045153c869e111136a34d1889ab7b598e396a3600854866040516119f992919061319f565b60405180910390a15050505050565b611a10611e5e565b600560008373ffffffffffffffffffffffffffffffffffffffff1673ffffffffffffffffffffffffffffffffffffffff1681526020019081526020016000206040518060e0016040529081600082018054611a6a90612c14565b80601f0160208091040260200160405190810160405280929190818152602001828054611a9690612c14565b8015611ae35780601f10611ab857610100808354040283529160200191611ae3565b820191906000526020600020905b815481529060010190602001808311611ac657829003601f168201915b505050505081526020016001820160009054906101000a900473ffffffffffffffffffffffffffffffffffffffff1673ffffffffffffffffffffffffffffffffffffffff1673ffffffffffffffffffffffffffffffffffffffff1681526020016001820160149054906101000a900460ff161515151581526020016001820160159054906101000a900460ff161515151581526020016002820154815260200160038201805480602002602001604051908101604052809291908181526020018280548015611c0757602002820191906000526020600020905b8160009054906101000a900473ffffffffffffffffffffffffffffffffffffffff1673ffffffffffffffffffffffffffffffffffffffff1681526020019060010190808311611bbd575b505050505081526020016004820160009054906101000a900460ff1615151515815250509050919050565b600160009054906101000a900473ffffffffffffffffffffffffffffffffffffffff1673ffffffffffffffffffffffffffffffffffffffff163373ffffffffffffffffffffffffffffffffffffffff1614611cc2576040517f08c379a0000000000000000000000000000000000000000000000000000000008152600401611cb99061317f565b60405180910390fd5b600260008054906101000a900460ff166002811115611ce457611ce36120bd565b5b10611d24576040517f08c379a0000000000000000000000000000000000000000000000000000000008152600401611d1b9061321b565b60405180910390fd5b600160008054906101000a900460ff166002811115611d4657611d456120bd565b5b611d5091906130cb565b6002811115611d6257611d616120bd565b5b6000806101000a81548160ff02191690836002811115611d8557611d846120bd565b5b02179055507fe05e29ee474a78de1664f90a8dd1d7cbaf6d365d9241a13c5af80c8296fcc01660008054906101000a900460ff166002811115611dcb57611dca6120bd565b5b604051611dd8919061256b565b60405180910390a1565b600160009054906101000a900473ffffffffffffffffffffffffffffffffffffffff1681565b60026020528060005260406000206000915054906101000a900460ff1681565b6040518060c001604052806000815260200160608152602001606081526020016000815260200160608152602001600081525090565b6040518060e0016040528060608152602001600073ffffffffffffffffffffffffffffffffffffffff16815260200160001515815260200160001515815260200160008152602001606081526020016000151581525090565b6000604051905090565b600080fd5b600080fd5b6000819050919050565b611ede81611ecb565b8114611ee957600080fd5b50565b600081359050611efb81611ed5565b92915050565b600060208284031215611f1757611f16611ec1565b5b6000611f2584828501611eec565b91505092915050565b600080fd5b600080fd5b6000601f19601f8301169050919050565b7f4e487b7100000000000000000000000000000000000000000000000000000000600052604160045260246000fd5b611f8182611f38565b810181811067ffffffffffffffff82111715611fa057611f9f611f49565b5b80604052505050565b6000611fb3611eb7565b9050611fbf8282611f78565b919050565b600067ffffffffffffffff821115611fdf57611fde611f49565b5b611fe882611f38565b9050602081019050919050565b82818337600083830152505050565b600061201761201284611fc4565b611fa9565b90508281526020810184848401111561203357612032611f33565b5b61203e848285611ff5565b509392505050565b600082601f83011261205b5761205a611f2e565b5b813561206b848260208601612004565b91505092915050565b60006020828403121561208a57612089611ec1565b5b600082013567ffffffffffffffff8111156120a8576120a7611ec6565b5b6120b484828501612046565b91505092915050565b7f4e487b7100000000000000000000000000000000000000000000000000000000600052602160045260246000fd5b600381106120fd576120fc6120bd565b5b50565b600081905061210e826120ec565b919050565b600061211e82612100565b9050919050565b61212e81612113565b82525050565b60006020820190506121496000830184612125565b92915050565b600073ffffffffffffffffffffffffffffffffffffffff82169050919050565b600061217a8261214f565b9050919050565b61218a8161216f565b811461219557600080fd5b50565b6000813590506121a781612181565b92915050565b6000602082840312156121c3576121c2611ec1565b5b60006121d184828501612198565b91505092915050565b600081519050919050565b600082825260208201905092915050565b6000819050602082019050919050565b61220f81611ecb565b82525050565b600081519050919050565b600082825260208201905092915050565b60005b8381101561224f578082015181840152602081019050612234565b60008484015250505050565b600061226682612215565b6122708185612220565b9350612280818560208601612231565b61228981611f38565b840191505092915050565b600060c0830160008301516122ac6000860182612206565b50602083015184820360208601526122c4828261225b565b915050604083015184820360408601526122de828261225b565b91505060608301516122f36060860182612206565b506080830151848203608086015261230b828261225b565b91505060a083015161232060a0860182612206565b508091505092915050565b60006123378383612294565b905092915050565b6000602082019050919050565b6000612357826121da565b61236181856121e5565b935083602082028501612373856121f6565b8060005b858110156123af5784840389528151612390858261232b565b945061239b8361233f565b925060208a01995050600181019050612377565b50829750879550505050505092915050565b600060208201905081810360008301526123db818461234c565b905092915050565b6123ec81611ecb565b82525050565b600082825260208201905092915050565b600061240e82612215565b61241881856123f2565b9350612428818560208601612231565b61243181611f38565b840191505092915050565b600060c08201905061245160008301896123e3565b81810360208301526124638188612403565b905081810360408301526124778187612403565b905061248660608301866123e3565b81810360808301526124988185612403565b90506124a760a08301846123e3565b979650505050505050565b600060c0830160008301516124ca6000860182612206565b50602083015184820360208601526124e2828261225b565b915050604083015184820360408601526124fc828261225b565b91505060608301516125116060860182612206565b5060808301518482036080860152612529828261225b565b91505060a083015161253e60a0860182612206565b508091505092915050565b6000602082019050818103600083015261256381846124b2565b905092915050565b600060208201905061258060008301846123e3565b92915050565b61258f8161216f565b82525050565b60006020820190506125aa6000830184612586565b92915050565b600060208201905081810360008301526125ca8184612403565b905092915050565b60008115159050919050565b6125e7816125d2565b82525050565b600060c08201905081810360008301526126078189612403565b90506126166020830188612586565b61262360408301876125de565b61263060608301866125de565b61263d60808301856123e3565b61264a60a08301846125de565b979650505050505050565b600060208201905061266a60008301846125de565b92915050565b6000806000806080858703121561268a57612689611ec1565b5b600085013567ffffffffffffffff8111156126a8576126a7611ec6565b5b6126b487828801612046565b945050602085013567ffffffffffffffff8111156126d5576126d4611ec6565b5b6126e187828801612046565b93505060406126f287828801611eec565b925050606085013567ffffffffffffffff81111561271357612712611ec6565b5b61271f87828801612046565b91505092959194509250565b6127348161216f565b82525050565b612743816125d2565b82525050565b600081519050919050565b600082825260208201905092915050565b6000819050602082019050919050565b6000612781838361272b565b60208301905092915050565b6000602082019050919050565b60006127a582612749565b6127af8185612754565b93506127ba83612765565b8060005b838110156127eb5781516127d28882612775565b97506127dd8361278d565b9250506001810190506127be565b5085935050505092915050565b600060e0830160008301518482036000860152612815828261225b565b915050602083015161282a602086018261272b565b50604083015161283d604086018261273a565b506060830151612850606086018261273a565b5060808301516128636080860182612206565b5060a083015184820360a086015261287b828261279a565b91505060c083015161289060c086018261273a565b508091505092915050565b600060208201905081810360008301526128b581846127f8565b905092915050565b7f4e6f74207265676973746572656420746f20766f746500000000000000000000600082015250565b60006128f36016836123f2565b91506128fe826128bd565b602082019050919050565b60006020820190508181036000830152612922816128e6565b9050919050565b7f57726f6e67207068617365000000000000000000000000000000000000000000600082015250565b600061295f600b836123f2565b915061296a82612929565b602082019050919050565b6000602082019050818103600083015261298e81612952565b9050919050565b7f416c726561647920766f74656400000000000000000000000000000000000000600082015250565b60006129cb600d836123f2565b91506129d682612995565b602082019050919050565b600060208201905081810360008301526129fa816129be565b9050919050565b7f496e76616c69642063616e646964617465000000000000000000000000000000600082015250565b6000612a376011836123f2565b9150612a4282612a01565b602082019050919050565b60006020820190508181036000830152612a6681612a2a565b9050919050565b7f4e487b7100000000000000000000000000000000000000000000000000000000600052601160045260246000fd5b6000612aa782611ecb565b91507fffffffffffffffffffffffffffffffffffffffffffffffffffffffffffffffff8203612ad957612ad8612a6d565b5b600182019050919050565b6000604082019050612af96000830185612586565b612b0660208301846123e3565b9392505050565b7f416c726561647920726571756573746564000000000000000000000000000000600082015250565b6000612b436011836123f2565b9150612b4e82612b0d565b602082019050919050565b60006020820190508181036000830152612b7281612b36565b9050919050565b7f4e6f7420696e20726567697374726174696f6e20706861736500000000000000600082015250565b6000612baf6019836123f2565b9150612bba82612b79565b602082019050919050565b60006020820190508181036000830152612bde81612ba2565b9050919050565b7f4e487b7100000000000000000000000000000000000000000000000000000000600052602260045260246000fd5b60006002820490506001821680612c2c57607f821691505b602082108103612c3f57612c3e612be5565b5b50919050565b60008190508160005260206000209050919050565b60006020601f8301049050919050565b600082821b905092915050565b600060088302612ca77fffffffffffffffffffffffffffffffffffffffffffffffffffffffffffffffff82612c6a565b612cb18683612c6a565b95508019841693508086168417925050509392505050565b6000819050919050565b6000612cee612ce9612ce484611ecb565b612cc9565b611ecb565b9050919050565b6000819050919050565b612d0883612cd3565b612d1c612d1482612cf5565b848454612c77565b825550505050565b600090565b612d31612d24565b612d3c818484612cff565b505050565b5b81811015612d6057612d55600082612d29565b600181019050612d42565b5050565b601f821115612da557612d7681612c45565b612d7f84612c5a565b81016020851015612d8e578190505b612da2612d9a85612c5a565b830182612d41565b50505b505050565b600082821c905092915050565b6000612dc860001984600802612daa565b1980831691505092915050565b6000612de18383612db7565b9150826002028217905092915050565b612dfa82612215565b67ffffffffffffffff811115612e1357612e12611f49565b5b612e1d8254612c14565b612e28828285612d64565b600060209050601f831160018114612e5b5760008415612e49578287015190505b612e538582612dd5565b865550612ebb565b601f198416612e6986612c45565b60005b82811015612e9157848901518255600182019150602085019450602081019050612e6c565b86831015612eae5784890151612eaa601f891682612db7565b8355505b6001600288020188555050505b505050505050565b7f4e6f7420612076616c696461746f720000000000000000000000000000000000600082015250565b6000612ef9600f836123f2565b9150612f0482612ec3565b602082019050919050565b60006020820190508181036000830152612f2881612eec565b9050919050565b7f566f7465722072656a6563746564000000000000000000000000000000000000600082015250565b6000612f65600e836123f2565b9150612f7082612f2f565b602082019050919050565b60006020820190508181036000830152612f9481612f58565b9050919050565b7f416c726561647920726567697374657265640000000000000000000000000000600082015250565b6000612fd16012836123f2565b9150612fdc82612f9b565b602082019050919050565b6000602082019050818103600083015261300081612fc4565b9050919050565b7f4e487b7100000000000000000000000000000000000000000000000000000000600052603260045260246000fd5b7f416c726561647920617070726f76656400000000000000000000000000000000600082015250565b600061306c6010836123f2565b915061307782613036565b602082019050919050565b6000602082019050818103600083015261309b8161305f565b9050919050565b60006040820190506130b76000830185612586565b6130c46020830184612586565b9392505050565b60006130d682611ecb565b91506130e183611ecb565b92508282019050808211156130f9576130f8612a6d565b5b92915050565b600061310a82611ecb565b915061311583611ecb565b925082820390508181111561312d5761312c612a6d565b5b92915050565b7f4e6f7420746f70207374616b652076616c696461746f72000000000000000000600082015250565b60006131696017836123f2565b915061317482613133565b602082019050919050565b600060208201905081810360008301526131988161315c565b9050919050565b60006040820190506131b460008301856123e3565b81810360208301526131c68184612403565b90509392505050565b7f416c726561647920696e2066696e616c20706861736500000000000000000000600082015250565b60006132056016836123f2565b9150613210826131cf565b602082019050919050565b60006020820190508181036000830152613234816131f8565b905091905056fea2646970667358221220bd32568f4446739a57dfa6865676fc27a048c1ecb4c49c6c26bc584250e9e92864736f6c63430008130033",
  "immutableReferences": {},
  "source": "// SPDX-License-Identifier: MIT\r\npragma solidity ^0.8.19;\r\n\r\ncontract Contest {\r\n    // === STRUCTS ===\r\n    struct Voter {\r\n        string aadhaarHash;\r\n        address wallet;\r\n        bool isRegistered;\r\n        bool hasVoted;\r\n        uint votedTo;\r\n        address[] approvedBy;\r\n        bool rejected;\r\n    }\r\n\r\n    struct Candidate {\r\n        uint id;\r\n        string name;\r\n        string party;\r\n        uint age;\r\n        string qualification;\r\n        uint voteCount;\r\n    }\r\n\r\n    // === ENUM ===\r\n    enum Phase { Registration, Voting, Result }\r\n    Phase public currentPhase;\r\n\r\n    // === STATE ===\r\n    address public owner;\r\n    address public topStakeValidator;\r\n\r\n    mapping(address => bool) public isValidator;\r\n    mapping(address => uint256) public validatorStake;\r\n    mapping(address => uint256) public validatorRewards;\r\n\r\n    mapping(address => Voter) public voters;\r\n    mapping(address => bool) public hasRequested;\r\n    mapping(uint => Candidate) public candidates;\r\n    uint public candidateCount;\r\n\r\n    address[] public validatorList;\r\n\r\n    // === EVENTS ===\r\n    event VoterRequested(address voter);\r\n    event VoterApproved(address voter, address validator);\r\n    event VoterRegistered(address voter);\r\n    event CandidateAdded(uint id, string name);\r\n    event PhaseChanged(uint phase);\r\n    event Voted(address voter, uint candidateId);\r\n\r\n    // === MODIFIERS ===\r\n    modifier onlyValidator() {\r\n        require(isValidator[msg.sender], \"Not a validator\");\r\n        _;\r\n    }\r\n\r\n    modifier onlyTopStakeValidator() {\r\n        require(msg.sender == topStakeValidator, \"Not top stake validator\");\r\n        _;\r\n    }\r\n\r\n    modifier onlyDuringPhase(Phase _phase) {\r\n        require(currentPhase == _phase, \"Wrong phase\");\r\n        _;\r\n    }\r\n\r\n    modifier onlyRegisteredVoter() {\r\n        require(voters[msg.sender].isRegistered, \"Not registered to vote\");\r\n        _;\r\n    }\r\n\r\n    constructor(\r\n        address v1,\r\n        address v2,\r\n        address v3,\r\n        address _topStakeValidator\r\n    ) {\r\n        owner = msg.sender;\r\n\r\n        isValidator[v1] = true;\r\n        isValidator[v2] = true;\r\n        isValidator[v3] = true;\r\n\r\n        topStakeValidator = _topStakeValidator;\r\n\r\n        validatorStake[v1] = 10 ether;\r\n        validatorStake[v2] = 10 ether;\r\n        validatorStake[v3] = 10 ether;\r\n\r\n        validatorList.push(v1);\r\n        validatorList.push(v2);\r\n        validatorList.push(v3);\r\n\r\n        currentPhase = Phase.Registration;\r\n    }\r\n\r\n    // === VOTER REGISTRATION REQUEST ===\r\n    function requestVoterRegistration(string memory _aadhaarHash) public {\r\n        require(!hasRequested[msg.sender], \"Already requested\");\r\n        require(currentPhase == Phase.Registration, \"Not in registration phase\");\r\n\r\n        Voter storage v = voters[msg.sender];\r\n        v.aadhaarHash = _aadhaarHash;\r\n        v.wallet = msg.sender;\r\n        v.isRegistered = false;\r\n        v.hasVoted = false;\r\n        v.rejected = false;\r\n\r\n        hasRequested[msg.sender] = true;\r\n\r\n        emit VoterRequested(msg.sender);\r\n    }\r\n\r\n    // === APPROVE VOTER ===\r\n    function approveVoter(address voterAddr) public onlyValidator {\r\n        Voter storage v = voters[voterAddr];\r\n        require(!v.rejected, \"Voter rejected\");\r\n        require(!v.isRegistered, \"Already registered\");\r\n\r\n        for (uint i = 0; i < v.approvedBy.length; i++) {\r\n            require(v.approvedBy[i] != msg.sender, \"Already approved\");\r\n        }\r\n\r\n        v.approvedBy.push(msg.sender);\r\n        emit VoterApproved(voterAddr, msg.sender);\r\n\r\n        if (v.approvedBy.length >= 2) {\r\n            v.isRegistered = true;\r\n            validatorRewards[msg.sender] += 1 ether;\r\n            emit VoterRegistered(voterAddr);\r\n        }\r\n    }\r\n\r\n    // === REJECT VOTER ===\r\n    function rejectVoter(address voterAddr) public onlyValidator {\r\n        Voter storage v = voters[voterAddr];\r\n        require(!v.isRegistered, \"Already registered\");\r\n        v.rejected = true;\r\n        validatorStake[msg.sender] -= 0.5 ether; // penalty\r\n    }\r\n\r\n    // === ADD CANDIDATE ===\r\n    function addCandidate(\r\n        string memory _name,\r\n        string memory _party,\r\n        uint _age,\r\n        string memory _qualification\r\n    ) public onlyTopStakeValidator onlyDuringPhase(Phase.Registration) {\r\n        candidateCount++;\r\n        candidates[candidateCount] = Candidate(\r\n            candidateCount,\r\n            _name,\r\n            _party,\r\n            _age,\r\n            _qualification,\r\n            0\r\n        );\r\n        emit CandidateAdded(candidateCount, _name);\r\n    }\r\n\r\n    // === CHANGE PHASE ===\r\n    function changePhase() public onlyTopStakeValidator {\r\n        require(uint(currentPhase) < 2, \"Already in final phase\");\r\n        currentPhase = Phase(uint(currentPhase) + 1);\r\n        emit PhaseChanged(uint(currentPhase));\r\n    }\r\n\r\n    // === CAST VOTE ===\r\n    function vote(uint candidateId) public onlyRegisteredVoter onlyDuringPhase(Phase.Voting) {\r\n        Voter storage v = voters[msg.sender];\r\n        require(!v.hasVoted, \"Already voted\");\r\n        require(candidateId > 0 && candidateId <= candidateCount, \"Invalid candidate\");\r\n\r\n        candidates[candidateId].voteCount++;\r\n        v.hasVoted = true;\r\n        v.votedTo = candidateId;\r\n\r\n        emit Voted(msg.sender, candidateId);\r\n    }\r\n\r\n    // === VIEW RESULTS ===\r\n    function getCandidate(uint id) public view returns (Candidate memory) {\r\n        return candidates[id];\r\n    }\r\n\r\n    function getAllCandidates() public view returns (Candidate[] memory) {\r\n        Candidate[] memory result = new Candidate[](candidateCount);\r\n        for (uint i = 1; i <= candidateCount; i++) {\r\n            result[i - 1] = candidates[i];\r\n        }\r\n        return result;\r\n    }\r\n\r\n    function getVoter(address addr) public view returns (Voter memory) {\r\n        return voters[addr];\r\n    }\r\n\r\n    function getCurrentPhase() public view returns (string memory) {\r\n        if (currentPhase == Phase.Registration) return \"Registration\";\r\n        if (currentPhase == Phase.Voting) return \"Voting\";\r\n        return \"Result\";\r\n    }\r\n}\r\n",
  "sourcePath": "D:\\Mainproject\\VotingSystem\\contracts\\Contest.sol",
  "compiler": {
    "name": "solc",
    "version": "0.8.19+commit.7dd6d404.Emscripten.clang"
  },
  "schemaVersion": "3.4.16",
  "updatedAt": "2025-04-16T06:01:45.185Z",
  "networkType": "ethereum",
  "devdoc": {
    "kind": "dev",
    "methods": {},
    "version": 1
  },
  "userdoc": {
    "kind": "user",
    "methods": {},
    "version": 1
  }
}